{
  "contractName": "InvestmentScreen",
  "abi": [
    {
      "constant": true,
      "inputs": [
        {
          "name": "",
          "type": "uint256"
        }
      ],
      "name": "opportunityToOwner",
      "outputs": [
        {
          "name": "",
          "type": "address"
        }
      ],
      "payable": false,
      "stateMutability": "view",
      "type": "function"
    },
    {
      "constant": true,
      "inputs": [
        {
          "name": "",
          "type": "address"
        }
      ],
      "name": "opportunitiesOwned",
      "outputs": [
        {
          "name": "",
          "type": "uint256"
        }
      ],
      "payable": false,
      "stateMutability": "view",
      "type": "function"
    },
    {
      "constant": true,
      "inputs": [
        {
          "name": "",
          "type": "uint256"
        }
      ],
      "name": "investmentOpportunities",
      "outputs": [
        {
          "name": "opportunityId",
          "type": "uint256"
        },
        {
          "name": "investee",
          "type": "address"
        },
        {
          "name": "funded",
          "type": "bool"
        },
        {
          "name": "status",
          "type": "string"
        },
        {
          "name": "opportunityName",
          "type": "string"
        },
        {
          "name": "opportunityDescription",
          "type": "string"
        },
        {
          "name": "fundingTarget",
          "type": "uint256"
        },
        {
          "name": "screeners",
          "type": "uint256"
        },
        {
          "name": "investor",
          "type": "address"
        },
        {
          "name": "endorsement1",
          "type": "address"
        },
        {
          "name": "endorsement2",
          "type": "address"
        },
        {
          "name": "endorsement3",
          "type": "address"
        }
      ],
      "payable": false,
      "stateMutability": "view",
      "type": "function"
    },
    {
      "constant": false,
      "inputs": [],
      "name": "renounceOwnership",
      "outputs": [],
      "payable": false,
      "stateMutability": "nonpayable",
      "type": "function"
    },
    {
      "constant": true,
      "inputs": [],
      "name": "owner",
      "outputs": [
        {
          "name": "",
          "type": "address"
        }
      ],
      "payable": false,
      "stateMutability": "view",
      "type": "function"
    },
    {
      "constant": true,
      "inputs": [
        {
          "name": "",
          "type": "uint256"
        }
      ],
      "name": "opportunities",
      "outputs": [
        {
          "name": "opportunityId",
          "type": "uint256"
        },
        {
          "name": "investee",
          "type": "address"
        },
        {
          "name": "funded",
          "type": "bool"
        },
        {
          "name": "status",
          "type": "string"
        },
        {
          "name": "opportunityName",
          "type": "string"
        },
        {
          "name": "opportunityDescription",
          "type": "string"
        },
        {
          "name": "fundingTarget",
          "type": "uint256"
        },
        {
          "name": "screeners",
          "type": "uint256"
        },
        {
          "name": "investor",
          "type": "address"
        },
        {
          "name": "endorsement1",
          "type": "address"
        },
        {
          "name": "endorsement2",
          "type": "address"
        },
        {
          "name": "endorsement3",
          "type": "address"
        }
      ],
      "payable": false,
      "stateMutability": "view",
      "type": "function"
    },
    {
      "constant": true,
      "inputs": [
        {
          "name": "",
          "type": "address"
        }
      ],
      "name": "opportunitiesAssessed",
      "outputs": [
        {
          "name": "",
          "type": "uint256"
        }
      ],
      "payable": false,
      "stateMutability": "view",
      "type": "function"
    },
    {
      "constant": false,
      "inputs": [
        {
          "name": "_newOwner",
          "type": "address"
        }
      ],
      "name": "transferOwnership",
      "outputs": [],
      "payable": false,
      "stateMutability": "nonpayable",
      "type": "function"
    },
    {
      "inputs": [],
      "payable": false,
      "stateMutability": "nonpayable",
      "type": "constructor"
    },
    {
      "anonymous": false,
      "inputs": [
        {
          "indexed": false,
          "name": "_endorsement1",
          "type": "address"
        },
        {
          "indexed": false,
          "name": "_endorsement2",
          "type": "address"
        },
        {
          "indexed": false,
          "name": "_endorsement3",
          "type": "address"
        }
      ],
      "name": "CurrentStatus",
      "type": "event"
    },
    {
      "anonymous": false,
      "inputs": [
        {
          "indexed": false,
          "name": "_opportunityId",
          "type": "uint256"
        },
        {
          "indexed": false,
          "name": "_investee",
          "type": "address"
        },
        {
          "indexed": false,
          "name": "_funded",
          "type": "bool"
        },
        {
          "indexed": false,
          "name": "_status",
          "type": "string"
        },
        {
          "indexed": false,
          "name": "_opportunityName",
          "type": "string"
        },
        {
          "indexed": false,
          "name": "_opportunityDescription",
          "type": "string"
        },
        {
          "indexed": false,
          "name": "_fundingTarget",
          "type": "uint256"
        },
        {
          "indexed": false,
          "name": "_screeners",
          "type": "uint256"
        },
        {
          "indexed": false,
          "name": "_investor",
          "type": "uint256"
        },
        {
          "indexed": false,
          "name": "_endorsement1",
          "type": "address"
        },
        {
          "indexed": false,
          "name": "_endorsement2",
          "type": "address"
        },
        {
          "indexed": false,
          "name": "_endorsement3",
          "type": "address"
        }
      ],
      "name": "OpportunitySnapshot",
      "type": "event"
    },
    {
      "anonymous": false,
      "inputs": [
        {
          "indexed": false,
          "name": "_screener",
          "type": "address"
        },
        {
          "indexed": false,
          "name": "_opportunityName",
          "type": "string"
        }
      ],
      "name": "OpportunityEndorsed",
      "type": "event"
    },
    {
      "anonymous": false,
      "inputs": [
        {
          "indexed": false,
          "name": "_opportunityId",
          "type": "uint256"
        },
        {
          "indexed": false,
          "name": "_investee",
          "type": "address"
        },
        {
          "indexed": false,
          "name": "_investor",
          "type": "address"
        },
        {
          "indexed": false,
          "name": "_opportunityName",
          "type": "string"
        },
        {
          "indexed": false,
          "name": "_fundingTarget",
          "type": "uint256"
        }
      ],
      "name": "OpportunityFunded",
      "type": "event"
    },
    {
      "anonymous": false,
      "inputs": [
        {
          "indexed": true,
          "name": "previousOwner",
          "type": "address"
        }
      ],
      "name": "OwnershipRenounced",
      "type": "event"
    },
    {
      "anonymous": false,
      "inputs": [
        {
          "indexed": true,
          "name": "previousOwner",
          "type": "address"
        },
        {
          "indexed": true,
          "name": "newOwner",
          "type": "address"
        }
      ],
      "name": "OwnershipTransferred",
      "type": "event"
    },
    {
      "constant": false,
      "inputs": [
        {
          "name": "_opportunityName",
          "type": "string"
        },
        {
          "name": "_opportunityDescription",
          "type": "string"
        },
        {
          "name": "_fundingTarget",
          "type": "uint256"
        }
      ],
      "name": "createOpportunity",
      "outputs": [],
      "payable": false,
      "stateMutability": "nonpayable",
      "type": "function"
    },
    {
      "constant": true,
      "inputs": [],
      "name": "getNumberOfOpportunities",
      "outputs": [
        {
          "name": "",
          "type": "uint256"
        }
      ],
      "payable": false,
      "stateMutability": "view",
      "type": "function"
    },
    {
      "constant": true,
      "inputs": [],
      "name": "getAvailableOpportunities",
      "outputs": [
        {
          "name": "",
          "type": "uint256[]"
        }
      ],
      "payable": false,
      "stateMutability": "view",
      "type": "function"
    },
    {
      "constant": false,
      "inputs": [
        {
          "name": "_opportunityNumber",
          "type": "uint256"
        }
      ],
      "name": "assessOpportunity",
      "outputs": [],
      "payable": false,
      "stateMutability": "nonpayable",
      "type": "function"
    },
    {
      "constant": false,
      "inputs": [
        {
          "name": "_opportunityId",
          "type": "uint256"
        }
      ],
      "name": "fundOpportunity",
      "outputs": [],
      "payable": true,
      "stateMutability": "payable",
      "type": "function"
    }
  ],
  "bytecode": "0x608060405260036040519080825280602002602001820160405280156200003b57816020015b6060815260200190600190039081620000255790505b506009908051906020019062000053929190620002a3565b503480156200006157600080fd5b50336000806101000a81548173ffffffffffffffffffffffffffffffffffffffff021916908373ffffffffffffffffffffffffffffffffffffffff16021790555033600160006101000a81548173ffffffffffffffffffffffffffffffffffffffff021916908373ffffffffffffffffffffffffffffffffffffffff16021790555060006002819055506000600381905550606060405190810160405280602581526020017f496e766573746d656e74206e65656473206164646974696f6e616c207363726581526020017f656e696e67000000000000000000000000000000000000000000000000000000815250600960008154811015156200016157fe5b906000526020600020019080519060200190620001809291906200030a565b50606060405190810160405280603581526020017f496e766573746d656e7420686173206265656e2073637265656e656420616e6481526020017f20697320726561647920666f722066756e64696e67000000000000000000000081525060096001815481101515620001ef57fe5b9060005260206000200190805190602001906200020e9291906200030a565b50606060405190810160405280603081526020017f496e766573746d656e7420686173206265656e2073637265656e656420616e6481526020017f20686173206265656e2066756e64656400000000000000000000000000000000815250600960028154811015156200027d57fe5b9060005260206000200190805190602001906200029c9291906200030a565b50620004bd565b828054828255906000526020600020908101928215620002f7579160200282015b82811115620002f6578251829080519060200190620002e592919062000391565b5091602001919060010190620002c4565b5b50905062000306919062000418565b5090565b828054600181600116156101000203166002900490600052602060002090601f016020900481019282601f106200034d57805160ff19168380011785556200037e565b828001600101855582156200037e579182015b828111156200037d57825182559160200191906001019062000360565b5b5090506200038d919062000449565b5090565b828054600181600116156101000203166002900490600052602060002090601f016020900481019282601f10620003d457805160ff191683800117855562000405565b8280016001018555821562000405579182015b8281111562000404578251825591602001919060010190620003e7565b5b50905062000414919062000449565b5090565b6200044691905b8082111562000442576000818162000438919062000471565b506001016200041f565b5090565b90565b6200046e91905b808211156200046a57600081600090555060010162000450565b5090565b90565b50805460018160011615610100020316600290046000825580601f10620004995750620004ba565b601f016020900490600052602060002090810190620004b9919062000449565b5b50565b6122dd80620004cd6000396000f3006080604052600436106100c5576000357c0100000000000000000000000000000000000000000000000000000000900463ffffffff1680630de9bdd1146100ca5780630f0096e914610137578063106751d31461018e578063496b031a1461042b5780636a93246214610497578063715018a61461055057806372e78e33146105675780637fa6f504146105945780638da5cb5b146105bf578063acd6c98f14610616578063bac524fa146108b3578063d4023946146108d3578063f2fde38b1461092a575b600080fd5b3480156100d657600080fd5b506100f56004803603810190808035906020019092919050505061096d565b604051808273ffffffffffffffffffffffffffffffffffffffff1673ffffffffffffffffffffffffffffffffffffffff16815260200191505060405180910390f35b34801561014357600080fd5b50610178600480360381019080803573ffffffffffffffffffffffffffffffffffffffff1690602001909291905050506109a0565b6040518082815260200191505060405180910390f35b34801561019a57600080fd5b506101b9600480360381019080803590602001909291905050506109b8565b604051808d81526020018c73ffffffffffffffffffffffffffffffffffffffff1673ffffffffffffffffffffffffffffffffffffffff1681526020018b1515151581526020018060200180602001806020018a81526020018981526020018873ffffffffffffffffffffffffffffffffffffffff1673ffffffffffffffffffffffffffffffffffffffff1681526020018773ffffffffffffffffffffffffffffffffffffffff1673ffffffffffffffffffffffffffffffffffffffff1681526020018673ffffffffffffffffffffffffffffffffffffffff1673ffffffffffffffffffffffffffffffffffffffff1681526020018573ffffffffffffffffffffffffffffffffffffffff1673ffffffffffffffffffffffffffffffffffffffff16815260200184810384528d818151815260200191508051906020019080838360005b838110156103175780820151818401526020810190506102fc565b50505050905090810190601f1680156103445780820380516001836020036101000a031916815260200191505b5084810383528c818151815260200191508051906020019080838360005b8381101561037d578082015181840152602081019050610362565b50505050905090810190601f1680156103aa5780820380516001836020036101000a031916815260200191505b5084810382528b818151815260200191508051906020019080838360005b838110156103e35780820151818401526020810190506103c8565b50505050905090810190601f1680156104105780820380516001836020036101000a031916815260200191505b509f5050505050505050505050505050505060405180910390f35b34801561043757600080fd5b50610440610c9c565b6040518080602001828103825283818151815260200191508051906020019060200280838360005b83811015610483578082015181840152602081019050610468565b505050509050019250505060405180910390f35b3480156104a357600080fd5b5061054e600480360381019080803590602001908201803590602001908080601f0160208091040260200160405190810160405280939291908181526020018383808284378201915050505050509192919290803590602001908201803590602001908080601f016020809104026020016040519081016040528093929190818152602001838380828437820191505050505050919291929080359060200190929190505050610dc1565b005b34801561055c57600080fd5b506105656113ef565b005b34801561057357600080fd5b50610592600480360381019080803590602001909291905050506114f1565b005b3480156105a057600080fd5b506105a9611994565b6040518082815260200191505060405180910390f35b3480156105cb57600080fd5b506105d461199e565b604051808273ffffffffffffffffffffffffffffffffffffffff1673ffffffffffffffffffffffffffffffffffffffff16815260200191505060405180910390f35b34801561062257600080fd5b50610641600480360381019080803590602001909291905050506119c3565b604051808d81526020018c73ffffffffffffffffffffffffffffffffffffffff1673ffffffffffffffffffffffffffffffffffffffff1681526020018b1515151581526020018060200180602001806020018a81526020018981526020018873ffffffffffffffffffffffffffffffffffffffff1673ffffffffffffffffffffffffffffffffffffffff1681526020018773ffffffffffffffffffffffffffffffffffffffff1673ffffffffffffffffffffffffffffffffffffffff1681526020018673ffffffffffffffffffffffffffffffffffffffff1673ffffffffffffffffffffffffffffffffffffffff1681526020018573ffffffffffffffffffffffffffffffffffffffff1673ffffffffffffffffffffffffffffffffffffffff16815260200184810384528d818151815260200191508051906020019080838360005b8381101561079f578082015181840152602081019050610784565b50505050905090810190601f1680156107cc5780820380516001836020036101000a031916815260200191505b5084810383528c818151815260200191508051906020019080838360005b838110156108055780820151818401526020810190506107ea565b50505050905090810190601f1680156108325780820380516001836020036101000a031916815260200191505b5084810382528b818151815260200191508051906020019080838360005b8381101561086b578082015181840152602081019050610850565b50505050905090810190601f1680156108985780820380516001836020036101000a031916815260200191505b509f5050505050505050505050505050505060405180910390f35b6108d160048036038101908080359060200190929190505050611c98565b005b3480156108df57600080fd5b50610914600480360381019080803573ffffffffffffffffffffffffffffffffffffffff16906020019092919050505061200c565b6040518082815260200191505060405180910390f35b34801561093657600080fd5b5061096b600480360381019080803573ffffffffffffffffffffffffffffffffffffffff169060200190929190505050612024565b005b60056020528060005260406000206000915054906101000a900473ffffffffffffffffffffffffffffffffffffffff1681565b60066020528060005260406000206000915090505481565b6008818154811015156109c757fe5b90600052602060002090600b02016000915090508060000154908060010160009054906101000a900473ffffffffffffffffffffffffffffffffffffffff16908060010160149054906101000a900460ff1690806002018054600181600116156101000203166002900480601f016020809104026020016040519081016040528092919081815260200182805460018160011615610100020316600290048015610ab25780601f10610a8757610100808354040283529160200191610ab2565b820191906000526020600020905b815481529060010190602001808311610a9557829003601f168201915b505050505090806003018054600181600116156101000203166002900480601f016020809104026020016040519081016040528092919081815260200182805460018160011615610100020316600290048015610b505780601f10610b2557610100808354040283529160200191610b50565b820191906000526020600020905b815481529060010190602001808311610b3357829003601f168201915b505050505090806004018054600181600116156101000203166002900480601f016020809104026020016040519081016040528092919081815260200182805460018160011615610100020316600290048015610bee5780601f10610bc357610100808354040283529160200191610bee565b820191906000526020600020905b815481529060010190602001808311610bd157829003601f168201915b5050505050908060050154908060060154908060070160009054906101000a900473ffffffffffffffffffffffffffffffffffffffff16908060080160009054906101000a900473ffffffffffffffffffffffffffffffffffffffff16908060090160009054906101000a900473ffffffffffffffffffffffffffffffffffffffff169080600a0160009054906101000a900473ffffffffffffffffffffffffffffffffffffffff1690508c565b60608060008060606000600354604051908082528060200260200182016040528015610cd75781602001602082028038833980820191505090505b50945060009350600192505b60035483111515610d365760046000848152602001908152602001600020600001548585815181101515610d1357fe5b906020019060200201818152505083806001019450508280600101935050610ce3565b83604051908082528060200260200182016040528015610d655781602001602082028038833980820191505090505b509150600090505b83811015610db6578481815181101515610d8357fe5b906020019060200201518282815181101515610d9b57fe5b90602001906020020181815250508080600101915050610d6d565b819550505050505090565b600060036000815480929190600101919050555060096000815481101515610de557fe5b9060005260206000200190506101806040519081016040528060035481526020013373ffffffffffffffffffffffffffffffffffffffff168152602001600015158152602001828054600181600116156101000203166002900480601f016020809104026020016040519081016040528092919081815260200182805460018160011615610100020316600290048015610ec05780601f10610e9557610100808354040283529160200191610ec0565b820191906000526020600020905b815481529060010190602001808311610ea357829003601f168201915b5050505050815260200185815260200184815260200183815260200160008152602001600073ffffffffffffffffffffffffffffffffffffffff168152602001600073ffffffffffffffffffffffffffffffffffffffff168152602001600073ffffffffffffffffffffffffffffffffffffffff168152602001600073ffffffffffffffffffffffffffffffffffffffff168152506004600060035481526020019081526020016000206000820151816000015560208201518160010160006101000a81548173ffffffffffffffffffffffffffffffffffffffff021916908373ffffffffffffffffffffffffffffffffffffffff16021790555060408201518160010160146101000a81548160ff0219169083151502179055506060820151816002019080519060200190610ff7929190612185565b506080820151816003019080519060200190611014929190612185565b5060a0820151816004019080519060200190611031929190612185565b5060c0820151816005015560e082015181600601556101008201518160070160006101000a81548173ffffffffffffffffffffffffffffffffffffffff021916908373ffffffffffffffffffffffffffffffffffffffff1602179055506101208201518160080160006101000a81548173ffffffffffffffffffffffffffffffffffffffff021916908373ffffffffffffffffffffffffffffffffffffffff1602179055506101408201518160090160006101000a81548173ffffffffffffffffffffffffffffffffffffffff021916908373ffffffffffffffffffffffffffffffffffffffff16021790555061016082015181600a0160006101000a81548173ffffffffffffffffffffffffffffffffffffffff021916908373ffffffffffffffffffffffffffffffffffffffff1602179055509050507f86b8e4d8ea29ee312ca2bafbba4231bff77cda8f901e334fecd208c1788a60aa600460006003548152602001908152602001600020600001543360006004600060035481526020019081526020016000206002018888886000806000806000604051808d81526020018c73ffffffffffffffffffffffffffffffffffffffff1673ffffffffffffffffffffffffffffffffffffffff1681526020018b1515151581526020018060200180602001806020018a81526020018981526020018881526020018773ffffffffffffffffffffffffffffffffffffffff1681526020018673ffffffffffffffffffffffffffffffffffffffff1681526020018573ffffffffffffffffffffffffffffffffffffffff16815260200184810384528d8181546001816001161561010002031660029004815260200191508054600181600116156101000203166002900480156113025780601f106112d757610100808354040283529160200191611302565b820191906000526020600020905b8154815290600101906020018083116112e557829003601f168201915b505084810383528c818151815260200191508051906020019080838360005b8381101561133c578082015181840152602081019050611321565b50505050905090810190601f1680156113695780820380516001836020036101000a031916815260200191505b5084810382528b818151815260200191508051906020019080838360005b838110156113a2578082015181840152602081019050611387565b50505050905090810190601f1680156113cf5780820380516001836020036101000a031916815260200191505b509f5050505050505050505050505050505060405180910390a150505050565b6000809054906101000a900473ffffffffffffffffffffffffffffffffffffffff1673ffffffffffffffffffffffffffffffffffffffff163373ffffffffffffffffffffffffffffffffffffffff1614151561144a57600080fd5b6000809054906101000a900473ffffffffffffffffffffffffffffffffffffffff1673ffffffffffffffffffffffffffffffffffffffff167ff8df31144d9c2f0f6b59d69b8b98abd5459d07f2742c4df920b25aae33c6482060405160405180910390a260008060006101000a81548173ffffffffffffffffffffffffffffffffffffffff021916908373ffffffffffffffffffffffffffffffffffffffff160217905550565b6000600460008381526020019081526020016000206006016000815480929190600101919050555060006004600084815260200190815260200160002060080160009054906101000a900473ffffffffffffffffffffffffffffffffffffffff1673ffffffffffffffffffffffffffffffffffffffff1614156115c857336004600084815260200190815260200160002060080160006101000a81548173ffffffffffffffffffffffffffffffffffffffff021916908373ffffffffffffffffffffffffffffffffffffffff160217905550611721565b60006004600084815260200190815260200160002060090160009054906101000a900473ffffffffffffffffffffffffffffffffffffffff1673ffffffffffffffffffffffffffffffffffffffff16141561167757336004600084815260200190815260200160002060090160006101000a81548173ffffffffffffffffffffffffffffffffffffffff021916908373ffffffffffffffffffffffffffffffffffffffff160217905550611720565b3360046000848152602001908152602001600020600a0160006101000a81548173ffffffffffffffffffffffffffffffffffffffff021916908373ffffffffffffffffffffffffffffffffffffffff160217905550600960018154811015156116dc57fe5b9060005260206000200190508060046000848152602001908152602001600020600201908054600181600116156101000203166002900461171e929190612205565b505b5b7fe53b2e34fe336064fc21288186e61fc4249f24825fcfcb859be19e7e275d5d783360046000858152602001908152602001600020600301604051808373ffffffffffffffffffffffffffffffffffffffff1673ffffffffffffffffffffffffffffffffffffffff168152602001806020018281038252838181546001816001161561010002031660029004815260200191508054600181600116156101000203166002900480156118145780601f106117e957610100808354040283529160200191611814565b820191906000526020600020905b8154815290600101906020018083116117f757829003601f168201915b5050935050505060405180910390a17f33c915c533c4903960f296b3039cec5cccc749c76dd5eb69412c751dc00da9d86004600084815260200190815260200160002060080160009054906101000a900473ffffffffffffffffffffffffffffffffffffffff166004600085815260200190815260200160002060090160009054906101000a900473ffffffffffffffffffffffffffffffffffffffff1660046000868152602001908152602001600020600a0160009054906101000a900473ffffffffffffffffffffffffffffffffffffffff16604051808473ffffffffffffffffffffffffffffffffffffffff1673ffffffffffffffffffffffffffffffffffffffff1681526020018373ffffffffffffffffffffffffffffffffffffffff1673ffffffffffffffffffffffffffffffffffffffff1681526020018273ffffffffffffffffffffffffffffffffffffffff1673ffffffffffffffffffffffffffffffffffffffff168152602001935050505060405180910390a15050565b6000600354905090565b6000809054906101000a900473ffffffffffffffffffffffffffffffffffffffff1681565b60046020528060005260406000206000915090508060000154908060010160009054906101000a900473ffffffffffffffffffffffffffffffffffffffff16908060010160149054906101000a900460ff1690806002018054600181600116156101000203166002900480601f016020809104026020016040519081016040528092919081815260200182805460018160011615610100020316600290048015611aae5780601f10611a8357610100808354040283529160200191611aae565b820191906000526020600020905b815481529060010190602001808311611a9157829003601f168201915b505050505090806003018054600181600116156101000203166002900480601f016020809104026020016040519081016040528092919081815260200182805460018160011615610100020316600290048015611b4c5780601f10611b2157610100808354040283529160200191611b4c565b820191906000526020600020905b815481529060010190602001808311611b2f57829003601f168201915b505050505090806004018054600181600116156101000203166002900480601f016020809104026020016040519081016040528092919081815260200182805460018160011615610100020316600290048015611bea5780601f10611bbf57610100808354040283529160200191611bea565b820191906000526020600020905b815481529060010190602001808311611bcd57829003601f168201915b5050505050908060050154908060060154908060070160009054906101000a900473ffffffffffffffffffffffffffffffffffffffff16908060080160009054906101000a900473ffffffffffffffffffffffffffffffffffffffff16908060090160009054906101000a900473ffffffffffffffffffffffffffffffffffffffff169080600a0160009054906101000a900473ffffffffffffffffffffffffffffffffffffffff1690508c565b6000806000600354111515611cac57600080fd5b600083118015611cbe57506003548311155b1515611cc957600080fd5b60046000848152602001908152602001600020915060008260070160009054906101000a900473ffffffffffffffffffffffffffffffffffffffff1673ffffffffffffffffffffffffffffffffffffffff16141515611d2757600080fd5b8160010160009054906101000a900473ffffffffffffffffffffffffffffffffffffffff1673ffffffffffffffffffffffffffffffffffffffff163373ffffffffffffffffffffffffffffffffffffffff1614151515611d8657600080fd5b816005015434141515611d9857600080fd5b338260070160006101000a81548173ffffffffffffffffffffffffffffffffffffffff021916908373ffffffffffffffffffffffffffffffffffffffff1602179055508160010160009054906101000a900473ffffffffffffffffffffffffffffffffffffffff1673ffffffffffffffffffffffffffffffffffffffff166108fc349081150290604051600060405180830381858888f19350505050158015611e45573d6000803e3d6000fd5b5060096002815481101515611e5657fe5b90600052602060002001905080826002019080546001816001161561010002031660029004611e86929190612205565b507f8b39c2066fdf80e413967dc60d4fce4ccde007ef2e9a8245e2ba87144a9b8ea6838360010160009054906101000a900473ffffffffffffffffffffffffffffffffffffffff168460070160009054906101000a900473ffffffffffffffffffffffffffffffffffffffff16856003018660050154604051808681526020018573ffffffffffffffffffffffffffffffffffffffff1673ffffffffffffffffffffffffffffffffffffffff1681526020018473ffffffffffffffffffffffffffffffffffffffff1673ffffffffffffffffffffffffffffffffffffffff16815260200180602001838152602001828103825284818154600181600116156101000203166002900481526020019150805460018160011615610100020316600290048015611ff55780601f10611fca57610100808354040283529160200191611ff5565b820191906000526020600020905b815481529060010190602001808311611fd857829003601f168201915b5050965050505050505060405180910390a1505050565b60076020528060005260406000206000915090505481565b6000809054906101000a900473ffffffffffffffffffffffffffffffffffffffff1673ffffffffffffffffffffffffffffffffffffffff163373ffffffffffffffffffffffffffffffffffffffff1614151561207f57600080fd5b6120888161208b565b50565b600073ffffffffffffffffffffffffffffffffffffffff168173ffffffffffffffffffffffffffffffffffffffff16141515156120c757600080fd5b8073ffffffffffffffffffffffffffffffffffffffff166000809054906101000a900473ffffffffffffffffffffffffffffffffffffffff1673ffffffffffffffffffffffffffffffffffffffff167f8be0079c531659141344cd1fd0a4f28419497f9722a3daafe3b4186f6b6457e060405160405180910390a3806000806101000a81548173ffffffffffffffffffffffffffffffffffffffff021916908373ffffffffffffffffffffffffffffffffffffffff16021790555050565b828054600181600116156101000203166002900490600052602060002090601f016020900481019282601f106121c657805160ff19168380011785556121f4565b828001600101855582156121f4579182015b828111156121f35782518255916020019190600101906121d8565b5b509050612201919061228c565b5090565b828054600181600116156101000203166002900490600052602060002090601f016020900481019282601f1061223e578054855561227b565b8280016001018555821561227b57600052602060002091601f016020900482015b8281111561227a57825482559160010191906001019061225f565b5b509050612288919061228c565b5090565b6122ae91905b808211156122aa576000816000905550600101612292565b5090565b905600a165627a7a72305820f71e6091f63dbad2983b41360506b9cc694f6f2dc8f1621293bec9fdda9f33f00029",
  "source": "pragma solidity ^0.4.24;\n\nimport \"./SafeMath.sol\";\nimport \"./Ownable.sol\";\n\ncontract InvestmentScreen is Ownable{\n  using SafeMath for uint256;\n\naddress owner;\n\nuint memberNumber;\nuint opportunityNumber;\n\n\n// Struct with investment characteristics\nstruct InvestmentOpportunity{\n  uint opportunityId;\n  address investee;\n  bool funded;\n  string status;\n  string opportunityName;\n  string opportunityDescription;\n  uint fundingTarget;\n  uint screeners;\n  address investor;\n  address endorsement1;\n  address endorsement2;\n  address endorsement3;\n}\n\n// status states for investment opportunities\nenum opportunityStatus {\n  Active,\n  Funded,\n  Closed\n}\n\nenum ranking {\n  Strong,\n  Good,\n  Average,\n  Poor\n}\n\n// mapping of available opportunities\n\nmapping (uint => InvestmentOpportunity) public opportunities;\n\n\nmapping (uint => address) public opportunityToOwner;\nmapping (address => uint) public opportunitiesOwned;\n\nmapping (address => uint) public opportunitiesAssessed;\n\nInvestmentOpportunity[] public investmentOpportunities;\n\nstring[] statusDescriptions = new string[] (3);\n\n// contract constuctor\nconstructor() public {\n  owner = msg.sender;\n  memberNumber = 0;\n  opportunityNumber = 0;\n  statusDescriptions[0] =   \"Investment needs additional screening\";\n  statusDescriptions[1] =   \"Investment has been screened and is ready for funding\";\n  statusDescriptions[2] =   \"Investment has been screened and has been funded\";\n}\n\n// event for adding a member\nevent CurrentStatus(\n  address _endorsement1,\n  address _endorsement2,\n  address _endorsement3\n  );\n\nevent OpportunitySnapshot(\n    uint _opportunityId,\n    address _investee,\n    bool _funded,\n    string _status,\n    string _opportunityName,\n    string _opportunityDescription,\n    uint _fundingTarget,\n    uint _screeners,\n    uint _investor,\n    address _endorsement1,\n    address _endorsement2,\n    address _endorsement3\n    );\n\nevent OpportunityEndorsed(\n  address _screener,\n  string _opportunityName\n  );\n\nevent OpportunityFunded(\n  uint _opportunityId,\n  address _investee,\n  address _investor,\n  string _opportunityName,\n  uint _fundingTarget);\n\nfunction createOpportunity(\n  string _opportunityName,\n  string _opportunityDescription,\n  uint _fundingTarget\n  ) public {\n    opportunityNumber++;\n    string storage status = statusDescriptions[0];\n    opportunities[opportunityNumber] = InvestmentOpportunity(\n      /* opportunityId: */ opportunityNumber,\n      /* investee: */ msg.sender,\n      /* funded: */ false,\n      /* status: */ status,\n      /* opportunityName: */ _opportunityName,\n      /* opportunityDescription: */ _opportunityDescription,\n      /* fundingTarget: */ _fundingTarget,\n      /* screeners: */ 0,\n      /* investor: */ 0x0,\n      /* endorsement1: */ 0x0,\n      /* endorsement2: */ 0x0,\n      /* endorsement3: */ 0x0\n      );\n\n     /* opportunityToOwner[id] = msg.sender; */\n     /* opportunitiesOwned[msg.sender]++; */\n\n  // Emit an event\n  emit OpportunitySnapshot(\n    opportunities[opportunityNumber].opportunityId,\n    msg.sender,\n    false,\n    opportunities[opportunityNumber].status,\n    _opportunityName,\n    _opportunityDescription,\n    _fundingTarget,\n    0,\n    0x0,\n    0x0,\n    0x0,\n    0x0\n    );\n}\n\n// get the number of active opportunities\nfunction getNumberOfOpportunities()\npublic view returns(uint){\n  return opportunityNumber;\n}\n\nfunction getAvailableOpportunities() public view returns (uint[]) {\n    //prepare output array\n    uint[] memory opportunityIds = new uint[](opportunityNumber);\n\n    uint numberOfAvailableOpportunities = 0;\n\n    for(uint i = 1; i <= opportunityNumber; i++) {\n      // keep the ID if the article is still for sale\n      /* if(opportunities[i].openForFunding == false){ */\n        opportunityIds[numberOfAvailableOpportunities] = opportunities[i].opportunityId;\n        numberOfAvailableOpportunities++;\n      /* } */\n    }\n\n    // copy the artileIds array into a smaller forSale array\n    uint[] memory forSale = new uint[] (numberOfAvailableOpportunities);\n    for(uint j = 0; j < numberOfAvailableOpportunities; j++) {\n      forSale[j] = opportunityIds[j];\n    }\n\n    return forSale;\n  }\n\n// request investment assessment\nfunction assessOpportunity(uint _opportunityNumber) public{\n  opportunities[_opportunityNumber].screeners++;\n\n  if(opportunities[_opportunityNumber].endorsement1 == 0x0) {\n    opportunities[_opportunityNumber].endorsement1 = msg.sender;\n  } else if (opportunities[_opportunityNumber].endorsement2 == 0x0) {\n    opportunities[_opportunityNumber].endorsement2 = msg.sender;\n  } else {\n    opportunities[_opportunityNumber].endorsement3 = msg.sender;\n    string storage status = statusDescriptions[1];\n    opportunities[_opportunityNumber].status = status;\n\n\n  }\n\n/*\n  uint newRanking = _ranking;\n  uint totalRankPoints = 0;\n  uint addedRank;\n\n  opportunities[_opportunityNumber].scoreArray.push(newRanking);\n  uint scores = opportunities[_opportunityNumber].scoreArray.length;\n\n  for(uint i = 0; i < scores; i++) {\n    /* newRanking = newRanking + 1; */\n\n    /* addedRank = opportunities[_opportunityNumber].scoreArray[i];\n    totalRankPoints = totalRankPoints.add(addedRank);\n  }\n\n  opportunities[_opportunityNumber].investmentScore = totalRankPoints; */\n  /* if (scores < 3) { */\n    emit OpportunityEndorsed(msg.sender, opportunities[_opportunityNumber].opportunityName);\n    emit CurrentStatus(opportunities[_opportunityNumber].endorsement1, opportunities[_opportunityNumber].endorsement2, opportunities[_opportunityNumber].endorsement3);\n  /* } else {\n    if(scores == 3 && totalRankPoints >= 9) {\n    opportunities[_opportunityNumber].openForFunding = true;\n    emit CurrentStatus(statusDescriptions[1]);\n  } else {\n    emit CurrentStatus(statusDescriptions[2]);\n  }\n} */\n  /* emit OpportunitySnapshot(_opportunityId, _investee, _screener, _investor, _opportunityName, _opportunityDescription, _currentFunding, _fundingTarget, _investmentScore, _opportunityStatus, _scoreArray) */\n}\n\n// buy an article\n  function fundOpportunity(uint _opportunityId) payable public {\n    // Require that there is an article for sellArticle\n    require(opportunityNumber > 0);\n\n    // check that an article exists\n    require(_opportunityId > 0 && _opportunityId <= opportunityNumber);\n\n    // retrieve the article from the mapping\n    InvestmentOpportunity storage opportunity = opportunities[_opportunityId];\n\n    // Check that the article has not been sold yet\n    require(opportunity.investor == 0x0);\n\n    // don't allow seller to buy own items\n    require(msg.sender != opportunity.investee);\n\n    // Check that the value sent is at least that of the Price\n    require(msg.value == opportunity.fundingTarget);\n\n    // keep the buyers information\n    opportunity.investor = msg.sender;\n\n    // the buyer can pay the _seller\n    opportunity.investee.transfer(msg.value);\n\n    string storage status = statusDescriptions[2];\n    opportunity.status = status;\n\n    // log the event\n    emit OpportunityFunded(_opportunityId, opportunity.investee, opportunity.investor, opportunity.opportunityName, opportunity.fundingTarget);\n  }\n}\n\n",
  "sourcePath": "/home/chrsppls/Consensys/FinalProject/contracts/InvestmentScreen.sol",
  "compiler": {
    "name": "solc",
    "version": "0.4.24+commit.e67f0147.Emscripten.clang"
  },
  "schemaVersion": "2.0.1",
  "updatedAt": "2018-08-27T22:37:53.883Z"
}