{
  "contractName": "InvestmentScreen",
  "abi": [
    {
      "constant": true,
      "inputs": [
        {
          "name": "",
          "type": "uint256"
        }
      ],
      "name": "investmentOpportunities",
      "outputs": [
        {
          "name": "opportunityId",
          "type": "uint256"
        },
        {
          "name": "investee",
          "type": "address"
        },
        {
          "name": "funded",
          "type": "bool"
        },
        {
          "name": "status",
          "type": "string"
        },
        {
          "name": "opportunityName",
          "type": "string"
        },
        {
          "name": "opportunityDescription",
          "type": "string"
        },
        {
          "name": "fundingTarget",
          "type": "uint256"
        },
        {
          "name": "screeners",
          "type": "uint256"
        },
        {
          "name": "investor",
          "type": "address"
        },
        {
          "name": "endorsement1",
          "type": "address"
        },
        {
          "name": "endorsement2",
          "type": "address"
        },
        {
          "name": "endorsement3",
          "type": "address"
        }
      ],
      "payable": false,
      "stateMutability": "view",
      "type": "function"
    },
    {
      "constant": false,
      "inputs": [],
      "name": "renounceOwnership",
      "outputs": [],
      "payable": false,
      "stateMutability": "nonpayable",
      "type": "function"
    },
    {
      "constant": true,
      "inputs": [],
      "name": "owner",
      "outputs": [
        {
          "name": "",
          "type": "address"
        }
      ],
      "payable": false,
      "stateMutability": "view",
      "type": "function"
    },
    {
      "constant": true,
      "inputs": [
        {
          "name": "",
          "type": "uint256"
        }
      ],
      "name": "opportunities",
      "outputs": [
        {
          "name": "opportunityId",
          "type": "uint256"
        },
        {
          "name": "investee",
          "type": "address"
        },
        {
          "name": "funded",
          "type": "bool"
        },
        {
          "name": "status",
          "type": "string"
        },
        {
          "name": "opportunityName",
          "type": "string"
        },
        {
          "name": "opportunityDescription",
          "type": "string"
        },
        {
          "name": "fundingTarget",
          "type": "uint256"
        },
        {
          "name": "screeners",
          "type": "uint256"
        },
        {
          "name": "investor",
          "type": "address"
        },
        {
          "name": "endorsement1",
          "type": "address"
        },
        {
          "name": "endorsement2",
          "type": "address"
        },
        {
          "name": "endorsement3",
          "type": "address"
        }
      ],
      "payable": false,
      "stateMutability": "view",
      "type": "function"
    },
    {
      "constant": false,
      "inputs": [
        {
          "name": "_newOwner",
          "type": "address"
        }
      ],
      "name": "transferOwnership",
      "outputs": [],
      "payable": false,
      "stateMutability": "nonpayable",
      "type": "function"
    },
    {
      "inputs": [],
      "payable": false,
      "stateMutability": "nonpayable",
      "type": "constructor"
    },
    {
      "anonymous": false,
      "inputs": [
        {
          "indexed": false,
          "name": "_opportunityId",
          "type": "uint256"
        },
        {
          "indexed": false,
          "name": "_investee",
          "type": "address"
        },
        {
          "indexed": false,
          "name": "_funded",
          "type": "bool"
        },
        {
          "indexed": false,
          "name": "_status",
          "type": "string"
        },
        {
          "indexed": false,
          "name": "_opportunityName",
          "type": "string"
        },
        {
          "indexed": false,
          "name": "_opportunityDescription",
          "type": "string"
        },
        {
          "indexed": false,
          "name": "_fundingTarget",
          "type": "uint256"
        },
        {
          "indexed": false,
          "name": "_screeners",
          "type": "uint256"
        },
        {
          "indexed": false,
          "name": "_investor",
          "type": "uint256"
        },
        {
          "indexed": false,
          "name": "_endorsement1",
          "type": "address"
        },
        {
          "indexed": false,
          "name": "_endorsement2",
          "type": "address"
        },
        {
          "indexed": false,
          "name": "_endorsement3",
          "type": "address"
        }
      ],
      "name": "OpportunitySnapshot",
      "type": "event"
    },
    {
      "anonymous": false,
      "inputs": [
        {
          "indexed": false,
          "name": "_screener",
          "type": "address"
        },
        {
          "indexed": false,
          "name": "_opportunityName",
          "type": "string"
        }
      ],
      "name": "OpportunityEndorsed",
      "type": "event"
    },
    {
      "anonymous": false,
      "inputs": [
        {
          "indexed": false,
          "name": "_opportunityId",
          "type": "uint256"
        },
        {
          "indexed": false,
          "name": "_investee",
          "type": "address"
        },
        {
          "indexed": false,
          "name": "_investor",
          "type": "address"
        },
        {
          "indexed": false,
          "name": "_opportunityName",
          "type": "string"
        },
        {
          "indexed": false,
          "name": "_fundingTarget",
          "type": "uint256"
        }
      ],
      "name": "OpportunityFunded",
      "type": "event"
    },
    {
      "anonymous": false,
      "inputs": [
        {
          "indexed": true,
          "name": "previousOwner",
          "type": "address"
        }
      ],
      "name": "OwnershipRenounced",
      "type": "event"
    },
    {
      "anonymous": false,
      "inputs": [
        {
          "indexed": true,
          "name": "previousOwner",
          "type": "address"
        },
        {
          "indexed": true,
          "name": "newOwner",
          "type": "address"
        }
      ],
      "name": "OwnershipTransferred",
      "type": "event"
    },
    {
      "constant": false,
      "inputs": [
        {
          "name": "_opportunityName",
          "type": "string"
        },
        {
          "name": "_opportunityDescription",
          "type": "string"
        },
        {
          "name": "_fundingTarget",
          "type": "uint256"
        }
      ],
      "name": "createOpportunity",
      "outputs": [],
      "payable": false,
      "stateMutability": "nonpayable",
      "type": "function"
    },
    {
      "constant": true,
      "inputs": [],
      "name": "getNumberOfOpportunities",
      "outputs": [
        {
          "name": "",
          "type": "uint256"
        }
      ],
      "payable": false,
      "stateMutability": "view",
      "type": "function"
    },
    {
      "constant": true,
      "inputs": [],
      "name": "getAvailableOpportunities",
      "outputs": [
        {
          "name": "",
          "type": "uint256[]"
        }
      ],
      "payable": false,
      "stateMutability": "view",
      "type": "function"
    },
    {
      "constant": false,
      "inputs": [
        {
          "name": "_opportunityNumber",
          "type": "uint256"
        }
      ],
      "name": "assessOpportunity",
      "outputs": [],
      "payable": false,
      "stateMutability": "nonpayable",
      "type": "function"
    },
    {
      "constant": false,
      "inputs": [
        {
          "name": "_opportunityId",
          "type": "uint256"
        }
      ],
      "name": "fundOpportunity",
      "outputs": [],
      "payable": true,
      "stateMutability": "payable",
      "type": "function"
    }
  ],
  "bytecode": "0x608060405260036040519080825280602002602001820160405280156200003b57816020015b6060815260200190600190039081620000255790505b5060059080519060200190620000539291906200029b565b503480156200006157600080fd5b50336000806101000a81548173ffffffffffffffffffffffffffffffffffffffff021916908373ffffffffffffffffffffffffffffffffffffffff16021790555033600160006101000a81548173ffffffffffffffffffffffffffffffffffffffff021916908373ffffffffffffffffffffffffffffffffffffffff1602179055506000600281905550606060405190810160405280602581526020017f496e766573746d656e74206e65656473206164646974696f6e616c207363726581526020017f656e696e67000000000000000000000000000000000000000000000000000000815250600560008154811015156200015957fe5b9060005260206000200190805190602001906200017892919062000302565b50606060405190810160405280603581526020017f496e766573746d656e7420686173206265656e2073637265656e656420616e6481526020017f20697320726561647920666f722066756e64696e67000000000000000000000081525060056001815481101515620001e757fe5b9060005260206000200190805190602001906200020692919062000302565b50606060405190810160405280603081526020017f496e766573746d656e7420686173206265656e2073637265656e656420616e6481526020017f20686173206265656e2066756e64656400000000000000000000000000000000815250600560028154811015156200027557fe5b9060005260206000200190805190602001906200029492919062000302565b50620004b5565b828054828255906000526020600020908101928215620002ef579160200282015b82811115620002ee578251829080519060200190620002dd92919062000389565b5091602001919060010190620002bc565b5b509050620002fe919062000410565b5090565b828054600181600116156101000203166002900490600052602060002090601f016020900481019282601f106200034557805160ff191683800117855562000376565b8280016001018555821562000376579182015b828111156200037557825182559160200191906001019062000358565b5b50905062000385919062000441565b5090565b828054600181600116156101000203166002900490600052602060002090601f016020900481019282601f10620003cc57805160ff1916838001178555620003fd565b82800160010185558215620003fd579182015b82811115620003fc578251825591602001919060010190620003df565b5b5090506200040c919062000441565b5090565b6200043e91905b808211156200043a576000818162000430919062000469565b5060010162000417565b5090565b90565b6200046691905b808211156200046257600081600090555060010162000448565b5090565b90565b50805460018160011615610100020316600290046000825580601f10620004915750620004b2565b601f016020900490600052602060002090810190620004b1919062000441565b5b50565b611fd180620004c56000396000f3006080604052600436106100a4576000357c0100000000000000000000000000000000000000000000000000000000900463ffffffff168063106751d3146100a9578063496b031a146103465780636a932462146103b2578063715018a61461046b57806372e78e33146104825780637fa6f504146104af5780638da5cb5b146104da578063acd6c98f14610531578063bac524fa146107ce578063f2fde38b146107ee575b600080fd5b3480156100b557600080fd5b506100d460048036038101908080359060200190929190505050610831565b604051808d81526020018c73ffffffffffffffffffffffffffffffffffffffff1673ffffffffffffffffffffffffffffffffffffffff1681526020018b1515151581526020018060200180602001806020018a81526020018981526020018873ffffffffffffffffffffffffffffffffffffffff1673ffffffffffffffffffffffffffffffffffffffff1681526020018773ffffffffffffffffffffffffffffffffffffffff1673ffffffffffffffffffffffffffffffffffffffff1681526020018673ffffffffffffffffffffffffffffffffffffffff1673ffffffffffffffffffffffffffffffffffffffff1681526020018573ffffffffffffffffffffffffffffffffffffffff1673ffffffffffffffffffffffffffffffffffffffff16815260200184810384528d818151815260200191508051906020019080838360005b83811015610232578082015181840152602081019050610217565b50505050905090810190601f16801561025f5780820380516001836020036101000a031916815260200191505b5084810383528c818151815260200191508051906020019080838360005b8381101561029857808201518184015260208101905061027d565b50505050905090810190601f1680156102c55780820380516001836020036101000a031916815260200191505b5084810382528b818151815260200191508051906020019080838360005b838110156102fe5780820151818401526020810190506102e3565b50505050905090810190601f16801561032b5780820380516001836020036101000a031916815260200191505b509f5050505050505050505050505050505060405180910390f35b34801561035257600080fd5b5061035b610b15565b6040518080602001828103825283818151815260200191508051906020019060200280838360005b8381101561039e578082015181840152602081019050610383565b505050509050019250505060405180910390f35b3480156103be57600080fd5b50610469600480360381019080803590602001908201803590602001908080601f0160208091040260200160405190810160405280939291908181526020018383808284378201915050505050509192919290803590602001908201803590602001908080601f016020809104026020016040519081016040528093929190818152602001838380828437820191505050505050919291929080359060200190929190505050610c3a565b005b34801561047757600080fd5b50610480611268565b005b34801561048e57600080fd5b506104ad6004803603810190808035906020019092919050505061136a565b005b3480156104bb57600080fd5b506104c46116a0565b6040518082815260200191505060405180910390f35b3480156104e657600080fd5b506104ef6116aa565b604051808273ffffffffffffffffffffffffffffffffffffffff1673ffffffffffffffffffffffffffffffffffffffff16815260200191505060405180910390f35b34801561053d57600080fd5b5061055c600480360381019080803590602001909291905050506116cf565b604051808d81526020018c73ffffffffffffffffffffffffffffffffffffffff1673ffffffffffffffffffffffffffffffffffffffff1681526020018b1515151581526020018060200180602001806020018a81526020018981526020018873ffffffffffffffffffffffffffffffffffffffff1673ffffffffffffffffffffffffffffffffffffffff1681526020018773ffffffffffffffffffffffffffffffffffffffff1673ffffffffffffffffffffffffffffffffffffffff1681526020018673ffffffffffffffffffffffffffffffffffffffff1673ffffffffffffffffffffffffffffffffffffffff1681526020018573ffffffffffffffffffffffffffffffffffffffff1673ffffffffffffffffffffffffffffffffffffffff16815260200184810384528d818151815260200191508051906020019080838360005b838110156106ba57808201518184015260208101905061069f565b50505050905090810190601f1680156106e75780820380516001836020036101000a031916815260200191505b5084810383528c818151815260200191508051906020019080838360005b83811015610720578082015181840152602081019050610705565b50505050905090810190601f16801561074d5780820380516001836020036101000a031916815260200191505b5084810382528b818151815260200191508051906020019080838360005b8381101561078657808201518184015260208101905061076b565b50505050905090810190601f1680156107b35780820380516001836020036101000a031916815260200191505b509f5050505050505050505050505050505060405180910390f35b6107ec600480360381019080803590602001909291905050506119a4565b005b3480156107fa57600080fd5b5061082f600480360381019080803573ffffffffffffffffffffffffffffffffffffffff169060200190929190505050611d18565b005b60048181548110151561084057fe5b90600052602060002090600b02016000915090508060000154908060010160009054906101000a900473ffffffffffffffffffffffffffffffffffffffff16908060010160149054906101000a900460ff1690806002018054600181600116156101000203166002900480601f01602080910402602001604051908101604052809291908181526020018280546001816001161561010002031660029004801561092b5780601f106109005761010080835404028352916020019161092b565b820191906000526020600020905b81548152906001019060200180831161090e57829003601f168201915b505050505090806003018054600181600116156101000203166002900480601f0160208091040260200160405190810160405280929190818152602001828054600181600116156101000203166002900480156109c95780601f1061099e576101008083540402835291602001916109c9565b820191906000526020600020905b8154815290600101906020018083116109ac57829003601f168201915b505050505090806004018054600181600116156101000203166002900480601f016020809104026020016040519081016040528092919081815260200182805460018160011615610100020316600290048015610a675780601f10610a3c57610100808354040283529160200191610a67565b820191906000526020600020905b815481529060010190602001808311610a4a57829003601f168201915b5050505050908060050154908060060154908060070160009054906101000a900473ffffffffffffffffffffffffffffffffffffffff16908060080160009054906101000a900473ffffffffffffffffffffffffffffffffffffffff16908060090160009054906101000a900473ffffffffffffffffffffffffffffffffffffffff169080600a0160009054906101000a900473ffffffffffffffffffffffffffffffffffffffff1690508c565b60608060008060606000600254604051908082528060200260200182016040528015610b505781602001602082028038833980820191505090505b50945060009350600192505b60025483111515610baf5760036000848152602001908152602001600020600001548585815181101515610b8c57fe5b906020019060200201818152505083806001019450508280600101935050610b5c565b83604051908082528060200260200182016040528015610bde5781602001602082028038833980820191505090505b509150600090505b83811015610c2f578481815181101515610bfc57fe5b906020019060200201518282815181101515610c1457fe5b90602001906020020181815250508080600101915050610be6565b819550505050505090565b600060026000815480929190600101919050555060056000815481101515610c5e57fe5b9060005260206000200190506101806040519081016040528060025481526020013373ffffffffffffffffffffffffffffffffffffffff168152602001600015158152602001828054600181600116156101000203166002900480601f016020809104026020016040519081016040528092919081815260200182805460018160011615610100020316600290048015610d395780601f10610d0e57610100808354040283529160200191610d39565b820191906000526020600020905b815481529060010190602001808311610d1c57829003601f168201915b5050505050815260200185815260200184815260200183815260200160008152602001600073ffffffffffffffffffffffffffffffffffffffff168152602001600073ffffffffffffffffffffffffffffffffffffffff168152602001600073ffffffffffffffffffffffffffffffffffffffff168152602001600073ffffffffffffffffffffffffffffffffffffffff168152506003600060025481526020019081526020016000206000820151816000015560208201518160010160006101000a81548173ffffffffffffffffffffffffffffffffffffffff021916908373ffffffffffffffffffffffffffffffffffffffff16021790555060408201518160010160146101000a81548160ff0219169083151502179055506060820151816002019080519060200190610e70929190611e79565b506080820151816003019080519060200190610e8d929190611e79565b5060a0820151816004019080519060200190610eaa929190611e79565b5060c0820151816005015560e082015181600601556101008201518160070160006101000a81548173ffffffffffffffffffffffffffffffffffffffff021916908373ffffffffffffffffffffffffffffffffffffffff1602179055506101208201518160080160006101000a81548173ffffffffffffffffffffffffffffffffffffffff021916908373ffffffffffffffffffffffffffffffffffffffff1602179055506101408201518160090160006101000a81548173ffffffffffffffffffffffffffffffffffffffff021916908373ffffffffffffffffffffffffffffffffffffffff16021790555061016082015181600a0160006101000a81548173ffffffffffffffffffffffffffffffffffffffff021916908373ffffffffffffffffffffffffffffffffffffffff1602179055509050507f86b8e4d8ea29ee312ca2bafbba4231bff77cda8f901e334fecd208c1788a60aa600360006002548152602001908152602001600020600001543360006003600060025481526020019081526020016000206002018888886000806000806000604051808d81526020018c73ffffffffffffffffffffffffffffffffffffffff1673ffffffffffffffffffffffffffffffffffffffff1681526020018b1515151581526020018060200180602001806020018a81526020018981526020018881526020018773ffffffffffffffffffffffffffffffffffffffff1681526020018673ffffffffffffffffffffffffffffffffffffffff1681526020018573ffffffffffffffffffffffffffffffffffffffff16815260200184810384528d81815460018160011615610100020316600290048152602001915080546001816001161561010002031660029004801561117b5780601f106111505761010080835404028352916020019161117b565b820191906000526020600020905b81548152906001019060200180831161115e57829003601f168201915b505084810383528c818151815260200191508051906020019080838360005b838110156111b557808201518184015260208101905061119a565b50505050905090810190601f1680156111e25780820380516001836020036101000a031916815260200191505b5084810382528b818151815260200191508051906020019080838360005b8381101561121b578082015181840152602081019050611200565b50505050905090810190601f1680156112485780820380516001836020036101000a031916815260200191505b509f5050505050505050505050505050505060405180910390a150505050565b6000809054906101000a900473ffffffffffffffffffffffffffffffffffffffff1673ffffffffffffffffffffffffffffffffffffffff163373ffffffffffffffffffffffffffffffffffffffff161415156112c357600080fd5b6000809054906101000a900473ffffffffffffffffffffffffffffffffffffffff1673ffffffffffffffffffffffffffffffffffffffff167ff8df31144d9c2f0f6b59d69b8b98abd5459d07f2742c4df920b25aae33c6482060405160405180910390a260008060006101000a81548173ffffffffffffffffffffffffffffffffffffffff021916908373ffffffffffffffffffffffffffffffffffffffff160217905550565b6000600360008381526020019081526020016000206006016000815480929190600101919050555060006003600084815260200190815260200160002060080160009054906101000a900473ffffffffffffffffffffffffffffffffffffffff1673ffffffffffffffffffffffffffffffffffffffff16141561144157336003600084815260200190815260200160002060080160006101000a81548173ffffffffffffffffffffffffffffffffffffffff021916908373ffffffffffffffffffffffffffffffffffffffff16021790555061159a565b60006003600084815260200190815260200160002060090160009054906101000a900473ffffffffffffffffffffffffffffffffffffffff1673ffffffffffffffffffffffffffffffffffffffff1614156114f057336003600084815260200190815260200160002060090160006101000a81548173ffffffffffffffffffffffffffffffffffffffff021916908373ffffffffffffffffffffffffffffffffffffffff160217905550611599565b3360036000848152602001908152602001600020600a0160006101000a81548173ffffffffffffffffffffffffffffffffffffffff021916908373ffffffffffffffffffffffffffffffffffffffff1602179055506005600181548110151561155557fe5b90600052602060002001905080600360008481526020019081526020016000206002019080546001816001161561010002031660029004611597929190611ef9565b505b5b7fe53b2e34fe336064fc21288186e61fc4249f24825fcfcb859be19e7e275d5d783360036000858152602001908152602001600020600301604051808373ffffffffffffffffffffffffffffffffffffffff1673ffffffffffffffffffffffffffffffffffffffff1681526020018060200182810382528381815460018160011615610100020316600290048152602001915080546001816001161561010002031660029004801561168d5780601f106116625761010080835404028352916020019161168d565b820191906000526020600020905b81548152906001019060200180831161167057829003601f168201915b5050935050505060405180910390a15050565b6000600254905090565b6000809054906101000a900473ffffffffffffffffffffffffffffffffffffffff1681565b60036020528060005260406000206000915090508060000154908060010160009054906101000a900473ffffffffffffffffffffffffffffffffffffffff16908060010160149054906101000a900460ff1690806002018054600181600116156101000203166002900480601f0160208091040260200160405190810160405280929190818152602001828054600181600116156101000203166002900480156117ba5780601f1061178f576101008083540402835291602001916117ba565b820191906000526020600020905b81548152906001019060200180831161179d57829003601f168201915b505050505090806003018054600181600116156101000203166002900480601f0160208091040260200160405190810160405280929190818152602001828054600181600116156101000203166002900480156118585780601f1061182d57610100808354040283529160200191611858565b820191906000526020600020905b81548152906001019060200180831161183b57829003601f168201915b505050505090806004018054600181600116156101000203166002900480601f0160208091040260200160405190810160405280929190818152602001828054600181600116156101000203166002900480156118f65780601f106118cb576101008083540402835291602001916118f6565b820191906000526020600020905b8154815290600101906020018083116118d957829003601f168201915b5050505050908060050154908060060154908060070160009054906101000a900473ffffffffffffffffffffffffffffffffffffffff16908060080160009054906101000a900473ffffffffffffffffffffffffffffffffffffffff16908060090160009054906101000a900473ffffffffffffffffffffffffffffffffffffffff169080600a0160009054906101000a900473ffffffffffffffffffffffffffffffffffffffff1690508c565b60008060006002541115156119b857600080fd5b6000831180156119ca57506002548311155b15156119d557600080fd5b60036000848152602001908152602001600020915060008260070160009054906101000a900473ffffffffffffffffffffffffffffffffffffffff1673ffffffffffffffffffffffffffffffffffffffff16141515611a3357600080fd5b8160010160009054906101000a900473ffffffffffffffffffffffffffffffffffffffff1673ffffffffffffffffffffffffffffffffffffffff163373ffffffffffffffffffffffffffffffffffffffff1614151515611a9257600080fd5b816005015434141515611aa457600080fd5b338260070160006101000a81548173ffffffffffffffffffffffffffffffffffffffff021916908373ffffffffffffffffffffffffffffffffffffffff1602179055508160010160009054906101000a900473ffffffffffffffffffffffffffffffffffffffff1673ffffffffffffffffffffffffffffffffffffffff166108fc349081150290604051600060405180830381858888f19350505050158015611b51573d6000803e3d6000fd5b5060056002815481101515611b6257fe5b90600052602060002001905080826002019080546001816001161561010002031660029004611b92929190611ef9565b507f8b39c2066fdf80e413967dc60d4fce4ccde007ef2e9a8245e2ba87144a9b8ea6838360010160009054906101000a900473ffffffffffffffffffffffffffffffffffffffff168460070160009054906101000a900473ffffffffffffffffffffffffffffffffffffffff16856003018660050154604051808681526020018573ffffffffffffffffffffffffffffffffffffffff1673ffffffffffffffffffffffffffffffffffffffff1681526020018473ffffffffffffffffffffffffffffffffffffffff1673ffffffffffffffffffffffffffffffffffffffff16815260200180602001838152602001828103825284818154600181600116156101000203166002900481526020019150805460018160011615610100020316600290048015611d015780601f10611cd657610100808354040283529160200191611d01565b820191906000526020600020905b815481529060010190602001808311611ce457829003601f168201915b5050965050505050505060405180910390a1505050565b6000809054906101000a900473ffffffffffffffffffffffffffffffffffffffff1673ffffffffffffffffffffffffffffffffffffffff163373ffffffffffffffffffffffffffffffffffffffff16141515611d7357600080fd5b611d7c81611d7f565b50565b600073ffffffffffffffffffffffffffffffffffffffff168173ffffffffffffffffffffffffffffffffffffffff1614151515611dbb57600080fd5b8073ffffffffffffffffffffffffffffffffffffffff166000809054906101000a900473ffffffffffffffffffffffffffffffffffffffff1673ffffffffffffffffffffffffffffffffffffffff167f8be0079c531659141344cd1fd0a4f28419497f9722a3daafe3b4186f6b6457e060405160405180910390a3806000806101000a81548173ffffffffffffffffffffffffffffffffffffffff021916908373ffffffffffffffffffffffffffffffffffffffff16021790555050565b828054600181600116156101000203166002900490600052602060002090601f016020900481019282601f10611eba57805160ff1916838001178555611ee8565b82800160010185558215611ee8579182015b82811115611ee7578251825591602001919060010190611ecc565b5b509050611ef59190611f80565b5090565b828054600181600116156101000203166002900490600052602060002090601f016020900481019282601f10611f325780548555611f6f565b82800160010185558215611f6f57600052602060002091601f016020900482015b82811115611f6e578254825591600101919060010190611f53565b5b509050611f7c9190611f80565b5090565b611fa291905b80821115611f9e576000816000905550600101611f86565b5090565b905600a165627a7a72305820db1c7ad75ac3e5171a4e4ed510e52b116ea91bfc6aa449b89d2553fd6525a7fc0029",
  "source": "pragma solidity ^0.4.24;\n\nimport \"./SafeMath.sol\";\nimport \"./Ownable.sol\";\n\ncontract InvestmentScreen is Ownable{\n  using SafeMath for uint256;\n\naddress owner;\n\nuint opportunityNumber;\n\n// Struct with investment characteristics\nstruct InvestmentOpportunity{\n  uint opportunityId;\n  address investee;\n  bool funded;\n  string status;\n  string opportunityName;\n  string opportunityDescription;\n  uint fundingTarget;\n  uint screeners;\n  address investor;\n  address endorsement1;\n  address endorsement2;\n  address endorsement3;\n}\n\n// mapping of available opportunities\nmapping (uint => InvestmentOpportunity) public opportunities;\n\nInvestmentOpportunity[] public investmentOpportunities;\n\nstring[] statusDescriptions = new string[] (3);\n\n// contract constuctor\nconstructor() public {\n  owner = msg.sender;\n  opportunityNumber = 0;\n  statusDescriptions[0] =   \"Investment needs additional screening\";\n  statusDescriptions[1] =   \"Investment has been screened and is ready for funding\";\n  statusDescriptions[2] =   \"Investment has been screened and has been funded\";\n}\n\n// event for creating an opporunity\nevent OpportunitySnapshot(\n    uint _opportunityId,\n    address _investee,\n    bool _funded,\n    string _status,\n    string _opportunityName,\n    string _opportunityDescription,\n    uint _fundingTarget,\n    uint _screeners,\n    uint _investor,\n    address _endorsement1,\n    address _endorsement2,\n    address _endorsement3\n    );\n\n// event for endorsing an opportunity\nevent OpportunityEndorsed(\n  address _screener,\n  string _opportunityName\n  );\n\n// event for funding an event\nevent OpportunityFunded(\n  uint _opportunityId,\n  address _investee,\n  address _investor,\n  string _opportunityName,\n  uint _fundingTarget);\n\nfunction createOpportunity(\n  string _opportunityName,\n  string _opportunityDescription,\n  uint _fundingTarget\n  ) public {\n    // update the opporuntiy count variable\n    opportunityNumber++;\n\n    // add an opportunity\n    string storage status = statusDescriptions[0];\n    opportunities[opportunityNumber] = InvestmentOpportunity(\n      /* opportunityId: */ opportunityNumber,\n      /* investee: */ msg.sender,\n      /* funded: */ false,\n      /* status: */ status,\n      /* opportunityName: */ _opportunityName,\n      /* opportunityDescription: */ _opportunityDescription,\n      /* fundingTarget: */ _fundingTarget,\n      /* screeners: */ 0,\n      /* investor: */ 0x0,\n      /* endorsement1: */ 0x0,\n      /* endorsement2: */ 0x0,\n      /* endorsement3: */ 0x0\n      );\n\n  // Emit event for created opportunity\n  emit OpportunitySnapshot(\n    opportunities[opportunityNumber].opportunityId,\n    msg.sender,\n    false,\n    opportunities[opportunityNumber].status,\n    _opportunityName,\n    _opportunityDescription,\n    _fundingTarget,\n    0,\n    0x0,\n    0x0,\n    0x0,\n    0x0\n    );\n}\n\n// get the number of active opportunities\nfunction getNumberOfOpportunities()\npublic view returns(uint){\n  return opportunityNumber;\n}\n\nfunction getAvailableOpportunities() public view returns (uint[]) {\n    //prepare output array\n    uint[] memory opportunityIds = new uint[](opportunityNumber);\n\n    // prepare opporunity number variable\n    uint numberOfAvailableOpportunities = 0;\n\n    // get available opportunities\n    for(uint i = 1; i <= opportunityNumber; i++) {\n        opportunityIds[numberOfAvailableOpportunities] = opportunities[i].opportunityId;\n        numberOfAvailableOpportunities++;\n    }\n\n    // copy the opportunityIds array into a smaller availableOpportunity array\n    uint[] memory availableOpportunity = new uint[] (numberOfAvailableOpportunities);\n    for(uint j = 0; j < numberOfAvailableOpportunities; j++) {\n      availableOpportunity[j] = opportunityIds[j];\n    }\n\n    return availableOpportunity;\n  }\n\n// provide endorsements for the investment opportunities\nfunction assessOpportunity(uint _opportunityNumber) public{\n  //update the number of screeners\n  opportunities[_opportunityNumber].screeners++;\n\n  if(opportunities[_opportunityNumber].endorsement1 == 0x0) {\n    //add the first endorsement\n    opportunities[_opportunityNumber].endorsement1 = msg.sender;\n  } else if (opportunities[_opportunityNumber].endorsement2 == 0x0) {\n    // add the second endorsement\n    opportunities[_opportunityNumber].endorsement2 = msg.sender;\n  } else {\n    // add the third endorsement and set status to accept funding\n    opportunities[_opportunityNumber].endorsement3 = msg.sender;\n    string storage status = statusDescriptions[1];\n    opportunities[_opportunityNumber].status = status;\n  }\n    emit OpportunityEndorsed(msg.sender, opportunities[_opportunityNumber].opportunityName);\n}\n\n// fund an Opportunity\n  function fundOpportunity(uint _opportunityId) payable public {\n    // Require that there is an Opportunity for sellArticle\n    require(opportunityNumber > 0);\n\n    // check that an Opportunity exists\n    require(_opportunityId > 0 && _opportunityId <= opportunityNumber);\n\n    // retrieve the Opportunity from the mapping\n    InvestmentOpportunity storage opportunity = opportunities[_opportunityId];\n\n    // Check that the Opportunity has not been sold yet\n    require(opportunity.investor == 0x0);\n\n    // don't allow seller to buy own items\n    require(msg.sender != opportunity.investee);\n\n    // Check that the value sent is at least that of the Price\n    require(msg.value == opportunity.fundingTarget);\n\n    // keep the buyers information\n    opportunity.investor = msg.sender;\n\n    // the buyer can pay the _seller\n    opportunity.investee.transfer(msg.value);\n\n    string storage status = statusDescriptions[2];\n    opportunity.status = status;\n\n    // log the event\n    emit OpportunityFunded(_opportunityId, opportunity.investee, opportunity.investor, opportunity.opportunityName, opportunity.fundingTarget);\n  }\n}\n\n",
  "sourcePath": "/home/chrsppls/Consensys/FinalProject/contracts/InvestmentScreen.sol",
  "compiler": {
    "name": "solc",
    "version": "0.4.24+commit.e67f0147.Emscripten.clang"
  },
  "schemaVersion": "2.0.1",
  "updatedAt": "2018-08-27T23:47:08.208Z"
}