{
  "contractName": "InvestmentScreen",
  "abi": [
    {
      "constant": true,
      "inputs": [
        {
          "name": "",
          "type": "address"
        }
      ],
      "name": "members",
      "outputs": [
        {
          "name": "account",
          "type": "address"
        },
        {
          "name": "id",
          "type": "uint256"
        },
        {
          "name": "firstName",
          "type": "string"
        },
        {
          "name": "lastName",
          "type": "string"
        },
        {
          "name": "memberType",
          "type": "uint256"
        }
      ],
      "payable": false,
      "stateMutability": "view",
      "type": "function"
    },
    {
      "inputs": [],
      "payable": false,
      "stateMutability": "nonpayable",
      "type": "constructor"
    },
    {
      "anonymous": false,
      "inputs": [
        {
          "indexed": false,
          "name": "_account",
          "type": "address"
        },
        {
          "indexed": true,
          "name": "_id",
          "type": "uint256"
        },
        {
          "indexed": false,
          "name": "_firstName",
          "type": "string"
        },
        {
          "indexed": false,
          "name": "_lastName",
          "type": "string"
        },
        {
          "indexed": false,
          "name": "_memberType",
          "type": "uint256"
        }
      ],
      "name": "MemberAdded",
      "type": "event"
    },
    {
      "constant": false,
      "inputs": [
        {
          "name": "_account",
          "type": "address"
        },
        {
          "name": "_firstName",
          "type": "string"
        },
        {
          "name": "_lastName",
          "type": "string"
        },
        {
          "name": "_memberType",
          "type": "uint256"
        }
      ],
      "name": "addMember",
      "outputs": [],
      "payable": false,
      "stateMutability": "nonpayable",
      "type": "function"
    },
    {
      "constant": true,
      "inputs": [],
      "name": "getNumberOfMembers",
      "outputs": [
        {
          "name": "",
          "type": "uint256"
        }
      ],
      "payable": false,
      "stateMutability": "view",
      "type": "function"
    },
    {
      "constant": true,
      "inputs": [
        {
          "name": "_member",
          "type": "address"
        }
      ],
      "name": "viewMember",
      "outputs": [
        {
          "name": "",
          "type": "uint256"
        },
        {
          "name": "",
          "type": "string"
        },
        {
          "name": "",
          "type": "string"
        },
        {
          "name": "",
          "type": "uint256"
        }
      ],
      "payable": false,
      "stateMutability": "view",
      "type": "function"
    }
  ],
  "bytecode": "0x608060405234801561001057600080fd5b50336000806101000a81548173ffffffffffffffffffffffffffffffffffffffff021916908373ffffffffffffffffffffffffffffffffffffffff1602179055506000600181905550610a88806100686000396000f300608060405260043610610062576000357c0100000000000000000000000000000000000000000000000000000000900463ffffffff16806308ae4b0c146100675780633d7371d7146101d05780638b73a46b14610306578063ddd7c82014610331575b600080fd5b34801561007357600080fd5b506100a8600480360381019080803573ffffffffffffffffffffffffffffffffffffffff16906020019092919050505061040a565b604051808673ffffffffffffffffffffffffffffffffffffffff1673ffffffffffffffffffffffffffffffffffffffff1681526020018581526020018060200180602001848152602001838103835286818151815260200191508051906020019080838360005b8381101561012a57808201518184015260208101905061010f565b50505050905090810190601f1680156101575780820380516001836020036101000a031916815260200191505b50838103825285818151815260200191508051906020019080838360005b83811015610190578082015181840152602081019050610175565b50505050905090810190601f1680156101bd5780820380516001836020036101000a031916815260200191505b5097505050505050505060405180910390f35b3480156101dc57600080fd5b50610211600480360381019080803573ffffffffffffffffffffffffffffffffffffffff169060200190929190505050610590565b604051808581526020018060200180602001848152602001838103835286818151815260200191508051906020019080838360005b83811015610261578082015181840152602081019050610246565b50505050905090810190601f16801561028e5780820380516001836020036101000a031916815260200191505b50838103825285818151815260200191508051906020019080838360005b838110156102c75780820151818401526020810190506102ac565b50505050905090810190601f1680156102f45780820380516001836020036101000a031916815260200191505b50965050505050505060405180910390f35b34801561031257600080fd5b5061031b610733565b6040518082815260200191505060405180910390f35b34801561033d57600080fd5b50610408600480360381019080803573ffffffffffffffffffffffffffffffffffffffff169060200190929190803590602001908201803590602001908080601f0160208091040260200160405190810160405280939291908181526020018383808284378201915050505050509192919290803590602001908201803590602001908080601f01602080910402602001604051908101604052809392919081815260200183838082843782019150505050505091929192908035906020019092919050505061073d565b005b60026020528060005260406000206000915090508060000160009054906101000a900473ffffffffffffffffffffffffffffffffffffffff1690806001015490806002018054600181600116156101000203166002900480601f0160208091040260200160405190810160405280929190818152602001828054600181600116156101000203166002900480156104e25780601f106104b7576101008083540402835291602001916104e2565b820191906000526020600020905b8154815290600101906020018083116104c557829003601f168201915b505050505090806003018054600181600116156101000203166002900480601f0160208091040260200160405190810160405280929190818152602001828054600181600116156101000203166002900480156105805780601f1061055557610100808354040283529160200191610580565b820191906000526020600020905b81548152906001019060200180831161056357829003601f168201915b5050505050908060040154905085565b6000606080600080600260008773ffffffffffffffffffffffffffffffffffffffff1673ffffffffffffffffffffffffffffffffffffffff1681526020019081526020016000209050806001015481600201826003018360040154828054600181600116156101000203166002900480601f0160208091040260200160405190810160405280929190818152602001828054600181600116156101000203166002900480156106805780601f1061065557610100808354040283529160200191610680565b820191906000526020600020905b81548152906001019060200180831161066357829003601f168201915b50505050509250818054600181600116156101000203166002900480601f01602080910402602001604051908101604052809291908181526020018280546001816001161561010002031660029004801561071c5780601f106106f15761010080835404028352916020019161071c565b820191906000526020600020905b8154815290600101906020018083116106ff57829003601f168201915b505050505091509450945094509450509193509193565b6000600154905090565b33935060a0604051908101604052808573ffffffffffffffffffffffffffffffffffffffff168152602001600154815260200184815260200183815260200182815250600260008673ffffffffffffffffffffffffffffffffffffffff1673ffffffffffffffffffffffffffffffffffffffff16815260200190815260200160002060008201518160000160006101000a81548173ffffffffffffffffffffffffffffffffffffffff021916908373ffffffffffffffffffffffffffffffffffffffff16021790555060208201518160010155604082015181600201908051906020019061082c9291906109b7565b5060608201518160030190805190602001906108499291906109b7565b50608082015181600401559050506001600081548092919060010191905055506001547f7e69b5cefb96822ef0e882247b0871aaceaeccdb53a485ce04deb8064afe789185858585604051808573ffffffffffffffffffffffffffffffffffffffff1673ffffffffffffffffffffffffffffffffffffffff1681526020018060200180602001848152602001838103835286818151815260200191508051906020019080838360005b8381101561090d5780820151818401526020810190506108f2565b50505050905090810190601f16801561093a5780820380516001836020036101000a031916815260200191505b50838103825285818151815260200191508051906020019080838360005b83811015610973578082015181840152602081019050610958565b50505050905090810190601f1680156109a05780820380516001836020036101000a031916815260200191505b50965050505050505060405180910390a250505050565b828054600181600116156101000203166002900490600052602060002090601f016020900481019282601f106109f857805160ff1916838001178555610a26565b82800160010185558215610a26579182015b82811115610a25578251825591602001919060010190610a0a565b5b509050610a339190610a37565b5090565b610a5991905b80821115610a55576000816000905550600101610a3d565b5090565b905600a165627a7a72305820d1765e8dc09bba0b1924b280a0412d54addaff0c87c0224e38ab461d24119fba0029",
  "source": "pragma solidity ^0.4.24;\n\ncontract InvestmentScreen {\n\naddress owner;\n\nuint memberNumber;\n\nstruct Member {\n  address account;\n  uint id;\n  string firstName;\n  string lastName;\n  uint memberType;\n}\n\nenum memberType {\n  Investor,\n  Assessor,\n  Investee\n}\n\nmapping (address => Member) public members;\n\n\nconstructor() public {\n  owner = msg.sender;\n  memberNumber = 0;\n}\n\nevent MemberAdded(\n  address _account,\n  uint indexed _id,\n  string _firstName,\n  string _lastName,\n  uint _memberType\n  );\n\n// Enroll new member accounts\nfunction addMember(address _account, string _firstName, string _lastName, uint _memberType) public {\n    /* emit MemberAdded(memberNumber); */\n    _account = msg.sender;\n    members[_account] = Member({account: _account, id: memberNumber, firstName: _firstName, lastName: _lastName, memberType: _memberType});\n    memberNumber++;\n    emit MemberAdded(_account, memberNumber, _firstName, _lastName, _memberType);\n  }\n\n// Get the number of members\nfunction getNumberOfMembers() public view returns(uint){\n  return memberNumber;\n}\n\n// View users\n  function viewMember(address _member) view public returns(uint, string, string, uint) {\n    Member storage member = members[_member];\n    return(member.id, member.firstName, member.lastName, member.memberType);\n  }\n\n// add investment opportunities\n\n\n\n\n// request investment assessment\n\n\n\n\n// define milestones\n\n\n\n\n// deploy funding\n\n\n\n\n// track progress\n\n\n\n}\n\n",
  "sourcePath": "/home/chrsppls/Consensys/FinalProject/contracts/InvestmentScreen.sol",
  "compiler": {
    "name": "solc",
    "version": "0.4.24+commit.e67f0147.Emscripten.clang"
  },
  "schemaVersion": "2.0.1",
  "updatedAt": "2018-08-24T15:28:45.548Z"
}